:020000040800F2
:1000000000000120811500082506000827060008C9
:10001000290600082B0600082D0600080000000035
:100020000000000000000000000000007103000854
:100030002F06000800000000210300083106000818
:10004000C9150008C9150008C9150008C915000818
:10005000C9150008C9150008C9150008C915000808
:10006000C9150008C9150008C9150008C9150008F8
:10007000C9150008C9150008C9150008C9150008E8
:10008000C9150008C9150008C9150008C9150008D8
:10009000C9150008C9150008C9150008C9150008C8
:1000A000C915000835060008C9150008C91500085B
:1000B000C9150008C9150008C9150008C9150008A8
:1000C000C9150008C9150008C9150008C915000898
:1000D000C9150008C9150008C9150008C915000888
:1000E000C9150008C9150008C9150008C915000878
:1000F000C9150008C9150008C9150008C915000868
:10010000C9150008C9150008C9150008C915000857
:10011000C9150008C9150008C9150008C915000847
:10012000C9150008C9150008C9150008C915000837
:1001300000000000000000000000000000000000BF
:1001400000000000000000000000000000000000AF
:10015000000000000000000000000000000000009F
:10016000000000000000000000000000000000008F
:10017000000000000000000000000000000000007F
:10018000000000000000000000000000000000006F
:10019000000000000000000000000000000000005F
:1001A000000000000000000000000000000000004F
:1001B000000000000000000000000000000000003F
:1001C000000000000000000000000000000000002F
:1001D000000000000000000000000000000000001F
:0401E0005FF8E0F1F3
:1001F00010B5054C237833B9044B13B10448AFF361
:1002000000800123237010BD1C00002000000000AE
:100210002416000808B5034B1BB103490348AFF38C
:10022000008008BD00000000200000202416000807
:10023000114B13F0070F08D0D91D21F007010F480B
:10024000C268521A1A44C2600B460C4AD2681A4459
:10025000A2F1080112F0070F05D0013A02F00701E0
:10026000C81A064AD060054AD06858601960002054
:10027000506013609160704738000020000000203B
:1002800038B500F1080410F0070F01D000F10F0499
:100290001A4B9B681BB119490B68002006E0FFF759
:1002A000C7FFF8E70D46184619461B68134A9268BF
:1002B0009A420BD05A68A242F6D30028F2D0D0F866
:1002C00004C06245F0D20D461846EDE7A8B10368B8
:1002D0002B600023036043681B1B0F2B07D900EB27
:1002E000C402536044602B6840F834302A60034AEB
:1002F000D36841685B1AD360403038BD00000020ED
:10030000FEE70000054A1368013313604FF0E02355
:100310004FF08052C3F8042DF4E700BF3C400020AA
:10032000EFF30980BFF36F8F0D4B1A6820E9F00FD0
:1003300010602DE908404FF0BF0080F3118800F0F5
:1003400075F84FF0000080F31188BDE80840196887
:100350000868B0E8F00F80F30988BFF36F8F70472B
:10036000C440002000000000000000000000000069
:10037000074B19680868B0E8F00F80F30988BFF3ED
:100380006F8F4FF0000080F311884EF00D0E704714
:10039000C44000204FF0807340F8043C21F001017C
:1003A00040F8081C034B40F80C3C40F8202C403827
:1003B000704700BF010300082DE9F04106460F46D3
:1003C00090461D460C20FFF75BFF04464FEA88006D
:1003D000FFF756FFA06008F18042013A00EB82006F
:1003E0003A46314620F00700FFF7D4FF2060069B15
:1003F0001C60024B43F82540BDE8F08140400020DE
:1004000010B582B0064C00940023402219460548DE
:10041000FFF7D2FF2268044B1A6002B010BD00BF84
:10042000C040002005030008C4400020084A1368AB
:1004300001331360074AA2FB031222F0010101EB12
:1004400052029B1A044A52F82320044B1A60704748
:1004500038400020ABAAAAAA40400020C440002097
:1004600008B500222021074800F09AFF4FF4FA70E7
:1004700000F028FB4FF0E0234FF08052C3F8042D2A
:10048000EFE700BF000C014008B50122202107481A
:1004900000F086FF4FF4FA7000F014FB4FF0E023F9
:1004A0004FF08052C3F8042DEFE700BF000C01406D
:1004B00070B586B002AD00240294039404940594B0
:1004C000124B9A6942F004029A619A6902F004029E
:1004D0000092009A9A6942F008029A619B6903F0BF
:1004E00008030193019B0A4E01222021304600F0AF
:1004F00057FF2023029301230393049402230593BF
:100500002946304600F034FE06B070BD00100240AF
:10051000000C014008B50268034B9A4200D008BDA8
:1005200000F0BEFAFBE700BF002C014072B6FEE708
:1005300008B50A480A4B03604FF4E13343600023D7
:100540008360C36003610C2242618361C36100F078
:10055000E7FF00B908BDFFF7E9FF00BFC840002072
:100560000038014010B590B006AC2822002120468A
:1005700001F02BF800230193029303930493059356
:10058000012206924FF4803307930A9202220D92C1
:100590000E934FF4E0130F93204600F0BDFA78B9A4
:1005A0000F23019302210291002303934FF48062F1
:1005B0000492059301A800F0E1FC18B910B010BD39
:1005C000FFF7B4FFFFF7B2FF00B585B000F056FAB1
:1005D000FFF7C8FFFFF76CFFFFF7AAFFFFF710FF59
:1005E00000240394029403AB0093012320222146AC
:1005F0000948FFF7E1FE02AB0093022320222146C7
:100600000648FFF7D9FE2021054800F0CFFE4FF441
:10061000FA7000F057FAF6E7610400088904000850
:10062000000C0140FEE7FEE7FEE7FEE7FEE770474D
:100630007047000008B5024800F0EEF808BD00BFA2
:100640001041002082B00E4B9A6942F001029A617B
:100650009A6902F001020092009ADA6942F080522F
:10066000DA61DB6903F080530193019B054A53680B
:1006700023F0E06343F00073536002B0704700BFA3
:10068000001002400000014030B587B00023029303
:100690000393049305930268184B9A4201D007B064
:1006A00030BD03F558439A6942F480429A619A69D1
:1006B00002F480420092009A9A6942F004029A6120
:1006C0009B6903F004030193019B4FF400730293B1
:1006D000022303930323059302AD094C29462046C8
:1006E00000F046FD4FF480630293002303930493CC
:1006F0002946204600F03CFDD1E700BF003801400C
:100700000008014030B589B004461E4B9A6942F496
:1007100000629A619B6903F400630193019B02A943
:1007200003A800F007FD00F0F5FC174AA2FB002328
:100730009B0C013B1548164A026040F2E732C2604A
:100740004360002303618360836100F069F905461B
:1007500010B1284609B030BD0C4800F01FF805461E
:100760000028F6D1192000F081FE0F2C01D90125B7
:10077000EFE700222146192000F068FE054B1C60BF
:10078000E7E700BF0010024083DE1B43104100205A
:10079000002C0140140000207047000090F83D300C
:1007A000012B2FD1022380F83D300268D36843F03B
:1007B0000103D3600368154A934218D002F5006222
:1007C000934214D0B3F1804F11D0A2F598329342E6
:1007D0000DD002F58062934209D002F58062934207
:1007E00005D01A6842F001021A60002070479A682A
:1007F00002F00702062A07D01A6842F001021A60C6
:10080000002070470120704700207047002C0140F5
:10081000704770477047704770B504460368DE68DC
:100820001D6915F0020F10D016F0020F0DD06FF0F9
:1008300002021A610123037703689B6913F0030F17
:100840005ED0FFF7E6FF0023237715F0040F12D0E8
:1008500016F0040F0FD023686FF004021A61022310
:10086000237723689B6913F4407F4FD02046FFF71E
:10087000D0FF0023237715F0080F12D016F0080FD1
:100880000FD023686FF008021A61042323772368CE
:10089000DB6913F0030F40D02046FFF7BAFF0023B7
:1008A000237715F0100F12D016F0100F0FD0236819
:1008B0006FF010021A61082323772368DB6913F4B1
:1008C000407F31D02046FFF7A4FF0023237715F0A7
:1008D000010F02D016F0010F2DD115F0800F02D0BC
:1008E00016F0800F2FD115F0400F02D016F0400FF8
:1008F00031D115F0200F02D016F0200F33D170BD8A
:10090000FFF786FF2046FFF785FF9CE72046FFF7AD
:100910007FFF2046FFF77EFFABE72046FFF778FF1B
:100920002046FFF777FFBAE72046FFF771FF204622
:10093000FFF770FFC9E723686FF001021A612046D4
:10094000FFF7E8FDC9E723686FF080021A612046CF
:1009500000F093F8C7E723686FF040021A61204661
:10096000FFF759FFC5E723686FF020021A612046A0
:1009700000F082F8C3E700000368284A904212D0D2
:1009800002F5006290420ED0B0F1804F0BD0A2F57C
:100990009832904207D002F58062904203D002F56F
:1009A0008062904203D123F070034A6813431B4ACC
:1009B000904212D002F5006290420ED0B0F1804F0A
:1009C0000BD0A2F59832904207D002F58062904297
:1009D00003D002F58062904203D123F44073CA68C9
:1009E000134323F080034A69134303608B68C36297
:1009F0000B688362094B984203D003F50063984269
:100A000001D10B69036301234361036913F0010FF3
:100A100003D0036923F0010303617047002C0140F8
:100A200040B310B5044690F83D30F3B1022384F88A
:100A30003D30214651F8040BFFF79EFF012384F857
:100A4000463084F83E3084F83F3084F8403084F8F3
:100A5000413084F8423084F8433084F8443084F8DC
:100A6000453084F83D30002010BD80F83C30FFF761
:100A700093FEDBE7012070477047704708B5074ACF
:100A8000136843F010031360032000F0CDFC0F2027
:100A9000FFF738FEFFF7D6FD002008BD002002401A
:100AA000034A1168034B1B780B441360704700BF67
:100AB0005841002010000020014B1868704700BF0B
:100AC0005841002038B50446FFF7F6FF0546B4F15B
:100AD000FF3F02D0044B1B781C44FFF7EDFF401B87
:100AE000A042FAD338BD00BF1000002082B0084BEE
:100AF0001B68084AA2FB03235B0A00FB03F3019374
:100B000000BF019B5A1E0192002BF9D102B0704721
:100B100018000020D34D6210002800F0F18170B55C
:100B200082B00446036813F0010F2CD0994B5B6828
:100B300003F00C03042B1DD0964B5B6803F00C03F1
:100B4000082B12D06368B3F5803F41D0002B55D1FC
:100B500003F1804303F504331A6822F480321A60EB
:100B60001A6822F480221A6037E08A4B5B6813F41B
:100B7000803FE7D0874B1B6813F4003F03D06368C6
:100B8000002B00F0BF81236813F0020F75D0814B5A
:100B90005B6813F00C0F5FD07E4B5B6803F00C03B7
:100BA000082B54D02369002B00F08A807A4B012255
:100BB0001A60FFF781FF0546764B1B6813F0020FA2
:100BC00075D1FFF779FF401B0228F5D903209EE17C
:100BD000704A136843F480331360636843B3FFF7CC
:100BE0006BFF05466B4B1B6813F4003FCBD1FFF73F
:100BF00063FF401B6428F5D9032088E1B3F5A02FDB
:100C000009D0644B1A6822F480321A601A6822F400
:100C100080221A60E1E703F18043A3F53C331A68B0
:100C200042F480221A601A6842F480321A60D4E7D3
:100C3000FFF742FF0546574B1B6813F4003FA2D055
:100C4000FFF73AFF401B6428F5D903205FE1514BC1
:100C50005B6813F4803FA5D14E4B1B6813F0020F65
:100C600003D02369012B40F04F814A4A136823F0D7
:100C7000F803616943EAC1031360236813F0080FA6
:100C800033D0A369002B5CD0434B0122C3F88024EE
:100C9000FFF712FF05463F4B5B6A13F0020F21D1AD
:100CA000FFF70AFF401B0228F5D903202FE1394A3C
:100CB000136823F0F803616943EAC1031360DCE7BA
:100CC000354B00221A60FFF7F7FE0546314B1B68D3
:100CD00013F0020FD1D0FFF7EFFE401B0228F5D929
:100CE000032014E10120FFF701FF236813F0040F34
:100CF00000F09680274BDB6913F0805F34D1254BE1
:100D0000DA6942F08052DA61DB6903F080530193C3
:100D1000019B0125214B1B6813F4807F26D0E368DB
:100D2000012B3DD0002B53D103F1804303F5043355
:100D30001A6A22F001021A621A6A22F004021A6286
:100D400033E0154B0022C3F88024FFF7B5FE0546BB
:100D5000104B5B6A13F0020FC7D0FFF7ADFE401BCC
:100D60000228F5D90320D2E00025D3E70B4A136807
:100D700043F480731360FFF79FFE0646074B1B6822
:100D800013F4807FCBD1FFF797FE801B6428F5D941
:100D90000320BCE00010024000004242007000400E
:100DA0005F4A136A43F001031362E36833B3FFF74A
:100DB00083FE06465A4B1B6A13F0020F2FD1FFF732
:100DC0007BFE801B41F288339842F3D903209EE0DA
:100DD000052B09D0524B1A6A22F001021A621A6AD4
:100DE00022F004021A62E0E74D4B1A6A42F0040254
:100DF0001A621A6A42F001021A62D6E7FFF75CFE35
:100E00000646474B1B6A13F0020F08D0FFF754FE4B
:100E1000801B41F288339842F3D9032077E0E5B98B
:100E2000E369002B72D03E4A526802F00C02082A95
:100E300056D0022B17D03B4B00221A66FFF73CFE20
:100E40000446374B1B6813F0007F47D0FFF734FE92
:100E5000001B0228F5D9032059E0314AD36923F059
:100E60008053D361DCE72F4B00221A66FFF724FE84
:100E700005462B4B1B6813F0007F06D0FFF71CFEC6
:100E8000401B0228F5D9032041E0236AB3F5803FD7
:100E90001AD023494B6823F47413226A606A024310
:100EA00013434B601F4B01221A66FFF705FE0446F1
:100EB0001B4B1B6813F0007F0ED1FFF7FDFD001BDD
:100EC0000228F5D9032022E0154A536823F40033A1
:100ED000A1680B435360DCE7002018E0002016E017
:100EE000012B16D00E4B5B6803F48031226A9142CD
:100EF00011D103F47013626A93420ED1002006E010
:100F000001207047012002E0012000E0002002B033
:100F100070BD0120FBE70120F9E70120F7E700BFE2
:100F200000100240000042420F4B5B6803F00C02CD
:100F3000082A01D00D487047C3F383420C49885CEE
:100F400013F4803F0BD0084B5B68C3F34043094A5E
:100F5000D35C064A02FB00F0B0FBF3F07047064B8F
:100F600003FB00F0704700BF0010024000127A003F
:100F7000401600083C16000800093D00002800F05B
:100F8000A08070B50D460446524B1B6803F0070362
:100F90008B420BD24F4A136823F007030B431360B5
:100FA000136803F007038B4240F08D80236813F031
:100FB000020F17D013F0040F04D0474A536843F4CC
:100FC000E0635360236813F0080F04D0424A53686B
:100FD00043F460535360404A536823F0F003A16820
:100FE0000B435360236813F0010F31D06368012B6A
:100FF00020D0022B25D0384A126812F0020F64D09C
:1010000035494A6822F0030213434B60FFF754FD51
:101010000646314B5B6803F00C036268B3EB820F4A
:1010200016D0FFF749FD801B41F288339842F0D972
:10103000032045E0284A126812F4003FE0D1012065
:101040003EE0254A126812F0007FD9D1012037E036
:10105000204B1B6803F00703AB420AD91D4A1368F3
:1010600023F007032B431360136803F00703AB421D
:101070002DD1236813F0040F06D0174A536823F4C8
:10108000E063E1680B435360236813F0080F07D057
:10109000114A536823F46053216943EAC103536042
:1010A000FFF742FF0C4B5B68C3F303130B4AD35C9F
:1010B000D8400B4B18600B4B1868FFF723FB002040
:1010C00070BD012070470120FAE70120F8E70120F8
:1010D000F6E700BF0020024000100240581600084A
:1010E0001800002014000020014B1868704700BF52
:1010F0001800002008B5FFF7F7FF044B5B68C3F347
:101100000223034AD35CD84008BD00BF0010024050
:101110005016000808B5FFF7E7FF044B5B68C3F300
:10112000C223034AD35CD84008BD00BF0010024070
:10113000501600080F2303600B4B5A6802F003029D
:1011400042605A6802F0F00282605A6802F4E0627B
:10115000C2605B68DB0803F4E0630361034B1B6858
:1011600003F007030B6070470010024000200240AC
:1011700070B582B00024A446A8E0834DAB4214D0E1
:101180000CD8A5F58015AB420FD005F57025AB4204
:101190000BD0A5F58015AB421FD106E07B4DAB42CD
:1011A00003D005F58035AB4217D18B68A3B1012B75
:1011B0000DD04261082410E0CC680EE0CC68043405
:1011C0000BE0CC68083408E0CC680C3405E0026120
:1011D000082402E0002400E00424BEF1FF0F41D8FF
:1011E00006464FEA8C0233680F25954023EA050333
:1011F00004FA02F2134333604B6813F0805F63D04C
:10120000634B9A6942F001029A619B6903F0010302
:101210000193019B4FEA9C02951C5E4B53F825609D
:101220000CF00305AD000F23AB4026EA03065A4B32
:1012300098421ED003F58063984200F0838003F546
:101240008063984200F0808003F5806398427DD0EF
:1012500003F5806398427BD003F58063984206D003
:10126000062307E0061DACF108029200BBE7052348
:1012700000E00023AB4033430232464D45F82230B4
:101280004B6813F4801F65D0444A936843EA0E0309
:1012900093604B6813F4001F62D0404AD36843EA5E
:1012A0000E03D3604B6813F4003F5FD03B4A536892
:1012B00043EA0E0353604B6813F4803F5CD0374A17
:1012C000136843EA0E0313600CF1010C0B6833FA48
:1012D0000CF257D0012202FA0CF203EA020E32EAB3
:1012E0000303F1D14B68122B3FF647AF122B3FF6A9
:1012F00074AF01A555F823F0AB110008B91100082F
:10130000C3110008D5110008DB110008DB1100082B
:10131000DB110008DB110008DB110008DB110008FD
:10132000DB110008DB110008DB110008DB110008ED
:10133000DB110008DB110008DB110008BD110008FB
:10134000C9110008012395E7022393E7032391E7DE
:1013500004238FE7114A936823EA0E03936098E70A
:101360000E4AD36823EA0E03D3609BE70B4A536807
:1013700023EA0E0353609EE7084A136823EA0E032C
:101380001360A1E702B070BD000022100000311010
:10139000001002400000014000080140000401402C
:1013A0000AB101617047090401617047C36801EA2D
:1013B000030221EA030141EA024101617047000092
:1013C000002808DB0901C9B200F1604000F5614066
:1013D00080F80013704700F00F000901C9B2014BFB
:1013E0001954704714ED00E000B500F00700C0F19B
:1013F000070CBCF1040F28BF4FF0040C031D062B93
:101400000FD9C31E4FF0FF3E0EFA0CF021EA000187
:1014100099400EFA03FE22EA0E0241EA02005DF84C
:1014200004FB0023EEE70000074AD36823F4E063DF
:101430001B041B0C000200F4E060034343F0BF6395
:1014400043F40033D360704700ED00E010B504466C
:10145000054BD868C0F30220FFF7C6FF01462046BF
:10146000FFF7AEFF10BD00BF00ED00E0002807DB76
:1014700000F01F02400901239340024A42F8203045
:10148000704700BF00E100E07047000010B504465F
:101490000268136923F44053C1680B4313618368E6
:1014A0000269134342691A430168CB6823F4B053BD
:1014B00023F00C031343CB600268536923F4407399
:1014C00081690B4353610268134B9A4220D0FFF7A6
:1014D00011FE024602EB820202EB820263689B006D
:1014E000B2FBF3F20D48A0FB02314909642303FB70
:1014F00011231B013233A0FB03035B0903F0F0024D
:1015000002EB011203F00F03216813448B6010BD3E
:10151000FFF700FE0246DDE7003801401F85EB5172
:1015200060B310B5044690F8413013B3242384F817
:1015300041302268D36823F40053D3602046FFF77C
:10154000A5FF2268136923F490431361226853694D
:1015500023F02A0353612268D36843F40053D36015
:1015600000206064202384F8413084F842306063B6
:1015700010BD80F84030FFF787F8D7E701207047AB
:10158000FFF782FF0B480C490C4A002302E0D458B5
:10159000C4500433C4188C42F9D3094A094C0023BF
:1015A00001E013600432A242FBD300F017F8FFF70A
:1015B0000BF87047000000201C0000207016000887
:1015C0001C0000205C410020FEE7034602449342D9
:1015D00000D1704703F8011BF9E7000070B5002641
:1015E0000C4D0D4B5B1B9C10A64209D1002600F050
:1015F00019F80A4D0A4B5B1B9C10A64205D170BD21
:1016000055F8043B98470136EEE755F8043B9847F8
:101610000136F2E768160008681600086816000828
:101620006C160008F8B500BFF8BC08BC9E467047B1
:0C163000F8B500BFF8BC08BC9E4670472F
:10163C000102000002030405060708090A0B0C0D41
:10164C000E0F101000000000010203040000000047
:0C165C000000000001020304060708095A
:04166800150200085F
:04166C00F101000880
:10167000000000000000000000000000004000002A
:0C168000010000001000000000127A00C1
:040000050800158159
:00000001FF
