:020000040800F2
:1000000000000120CD230008590A0008610A0008F9
:10001000690A0008710A0008790A00080000000057
:1000200000000000000000000000000011040008B3
:10003000810A000800000000C1030008390400081C
:1000400015240008152400081524000815240008AC
:10005000152400081524000815240008152400089C
:10006000152400081524000815240008152400088C
:10007000152400081524000815240008152400087C
:10008000152400081524000815240008152400086C
:10009000152400081524000815240008152400085C
:1000A000152400088D0A00081524000815240008EE
:1000B000152400081524000815240008152400083C
:1000C000152400081524000815240008152400082C
:1000D000152400081524000815240008152400081C
:1000E000152400081524000815240008152400080C
:1000F00015240008152400081524000815240008FC
:1001000015240008152400081524000815240008EB
:1001100015240008152400081524000815240008DB
:1001200015240008152400081524000815240008CB
:1001300000000000000000000000000000000000BF
:1001400000000000000000000000000000000000AF
:10015000000000000000000000000000000000009F
:10016000000000000000000000000000000000008F
:10017000000000000000000000000000000000007F
:10018000000000000000000000000000000000006F
:10019000000000000000000000000000000000005F
:1001A000000000000000000000000000000000004F
:1001B000000000000000000000000000000000003F
:1001C000000000000000000000000000000000002F
:1001D000000000000000000000000000000000001F
:0401E0005FF8E0F1F3
:1001F00010B5054C237833B9044B13B10448AFF361
:1002000000800123237010BD1C00002000000000AE
:100210007024000808B5034B1BB103490348AFF332
:10022000008008BD000000002000002070240008AD
:1002300080B485B000AF224BFB60FB6803F007037E
:10024000002B0ED0FB680733FB60FB6823F007032D
:10025000FB601C4BDA68FB68D31A194A1344194A2D
:10026000D360184BDA68FB68134408229B1ABB6002
:10027000BB6803F00703002B0BD0BB680733BB60E0
:10028000BB6803F00703BB60BA68FB68D31A0D4A6A
:10029000D360FB687B600B4BDA687B685A60BA6896
:1002A0007B681A60074B00225A60064A7B6813601D
:1002B000BB68044A936000BF1437BD4680BC7047DA
:1002C000380000200000002080B588B000AF7860C2
:1002D00000237B6108227B6813447B607B6803F00A
:1002E0000703002B09D07B6803F00703C3F1080361
:1002F000FB607A68FB6813447B60304B9B68002B83
:1003000001D1FFF795FF2D4BFB612C4B1B68BB61A7
:1003100016E0BB695B687A689A420CD87B69002B4F
:1003200005D0BB695A687B695B689A4203D2FB6956
:100330003B61BB697B61BB69FB61BB691B68BB61DE
:100340001E4B9B68BA699A42E3D17B69002B01D1AD
:1003500000232EE07B691A683B691A607B690022E2
:100360001A607B695A687B68D21A08235B009A423C
:1003700014D37B68DB007A691344BB607B695A68DD
:100380007B68D21ABB685A607B697A685A603B699D
:100390001A68BB681A603B69BA681A60074BDA686A
:1003A0007B695B68D31A054AD3600823DB007A694E
:1003B000134418462037BD4680BD00BF0000002012
:1003C000EFF30980BFF36F8F0D4B1A6820E9F00F30
:1003D00010602DE908404FF0BF0080F3118800F055
:1003E00045F94FF0000080F31188BDE80840196816
:1003F0000868B0E8F00F80F30988BFF36F8F70478B
:100400003840002000BF00BF0000000000000000D6
:10041000074B19680868B0E8F00F80F30988BFF34C
:100420006F8F4FF0000080F311884EF00D0E704773
:100430003840002000BF00BF80B584B000AFBF23AC
:1004400072B6EFF311821B4683F31188BFF34F8F0F
:10045000BFF36F8F62B67A603B607B68FB6000F031
:1004600097F9FB68BB60BB6872B683F31188BFF372
:100470004F8FBFF36F8F62B600BF00BF1037BD460E
:1004800080BD000080B483B000AF786039600E4B4F
:100490001B683A689A4202D20B4A3B6813600122F9
:1004A0003B6802FA03F31A46084B1B681343074ADA
:1004B00013607B681A6806493B6841F8232000BF37
:1004C0000C37BD4680BC7047CC410020C0400020A6
:1004D0004040002080B586B000AFF860B9607A6017
:1004E0003B600C20FFF7F0FE78617B689B001846AC
:1004F000FFF7EAFE02467B699A607B699A687B682F
:1005000003F18043013B9B0013443B613B6923F0B3
:1005100007033B61BA68F968386900F015F80246CC
:100520007B691A607B693A685A603B6A7A691A602B
:100530003968386AFFF7A6FF00BF1837BD4680BD8F
:1005400080B400AF00BFFDE780B485B000AFF860B5
:10055000B9607A60FB68043BFB60FB684FF0807217
:100560001A60FB68043BFB60BB6823F00102FB6878
:100570001A60FB68043BFB60084AFB681A60FB6872
:10058000143BFB607A68FB681A60FB68203BFB60E9
:10059000FB6818461437BD4680BC7047410500080B
:1005A00080B400AF054B1B680133044A1360044B51
:1005B0004FF080521A6000BFF4E700BFD441002022
:1005C00004ED00E080B582B002AF0A4B00221A6051
:1005D00000F06CF8084B00930023402200210748EC
:1005E000FFF778FF044B1B68054A136000BFBD4648
:1005F00080BD00BFD04100203C400020A105000884
:100600003840002080B400AF164B1B68154A43F4F5
:100610007F031360134B1B68124A43F07F43136040
:10062000114B00221A60104B00229A600E4B41F6CB
:100630001F425A600C4B07221A6006480068006887
:1006400080F3088862B661B6BFF34F8FBFF36F8F38
:1006500000DF00BF08ED00E000BF00BFBD4680BC6A
:10066000704700BF20ED00E010E000E080B483B0F0
:1006700000AF0B4B1B68B3FA83F24FF01F03A3EBE1
:100680000202FA71BB71FB791A46064B53F822300D
:10069000054A136000BF0C37BD4680BC704700BFE1
:1006A000C0400020404000203840002080B400AF0F
:1006B000064B00221A60064B064A1A60064B074A90
:1006C0001A6000BFBD4680BC704700BFD04100200B
:1006D000C4410020C4400020C84100204441002003
:1006E00080B483B000AF074B1B687B60064B1B6870
:1006F000044A1360044A7B68136000BF0C37BD4690
:1007000080BC7047C4410020C841002080B485B03F
:1007100000AF7860184B1B687A681344FB60174B76
:100720001B685B68BB60144B1B68FA689A4207D26F
:10073000134B1A68BB689B001344FA681A6006E002
:10074000104B1A68BB689B001344FA681A600122B8
:10075000BB6802FA03F3DB431A460B4B1B681340DA
:10076000094A1360094B4FF080521A6000BF1437DA
:10077000BD4680BC704700BFD041002038400020FB
:10078000C8410020C4410020C040002004ED00E02A
:1007900080B582B000AF1F4B1B6801331D4A136048
:1007A0001C4B1B68002B01D1FFF79AFF00237B60D5
:1007B00025E0194B1A687B689B0013441B68002BCB
:1007C0001AD0154B1A687B689B0013441A68114BAA
:1007D0001B689A4210D8104B1A687B689B00134420
:1007E00000221A6001227B6802FA03F31A460B4BBF
:1007F0001B681343094A13607B6801337B607B6885
:100800001F2BD6DD064B4FF080521A6000BF083711
:10081000BD4680BDD0410020C4410020C040002022
:1008200004ED00E080B500AF2021044801F0AAFAF1
:100830004FF47A70FFF76AFF00BFF5E7000C014044
:10084000B0B586B000AF0A4B3C461D460FCD0FC475
:1008500095E8030020600434218002340B0C2370DF
:10086000394664231722034801F0DBFBF8E700BF99
:1008700088240008D841002080B584B002AF00F081
:1008800063FC00F023F800F091F800F065F8FFF742
:1008900099FE00237B6000233B603B1D00930223F5
:1008A000202200210748FFF715FE3B460093012355
:1008B0004FF4807200210448FFF70CFEFFF7A2FE00
:1008C00000BFFDE7250800084108000880B590B08A
:1008D00000AF07F1180328220021184601F09BFD04
:1008E0003B1D00221A605A609A60DA601A61012387
:1008F000BB614FF48033FB6100233B620123BB6289
:1009000002237B634FF48033BB634FF4E013FB633C
:1009100007F11803184600F049FC0346002B01D0EC
:1009200000F094F80F237B600223BB600023FB6080
:100930004FF480633B6100237B613B1D022118461D
:1009400000F0B6FE0346002B01D000F07FF800BF98
:100950004037BD4680BD000080B500AF114B124A44
:100960001A60104B4FF4E1325A600E4B00229A602D
:100970000C4B0022DA600B4B00221A61094B0C224F
:100980005A61084B00229A61064B0022DA61054841
:1009900001F0F7FA0346002B01D000F057F800BF32
:1009A00080BD00BFD84100200038014080B586B02E
:1009B00000AF07F1080300221A605A609A60DA60FB
:1009C000174B9B69164A43F004039361144B9B69D0
:1009D00003F004037B607B68114B9B69104A43F072
:1009E000080393610E4B9B6903F008033B603B686F
:1009F000012220210B4801F0ADF92023BB60012327
:100A0000FB6000233B6102237B6107F10803194669
:100A1000044801F00BF800BF1837BD4680BD00BF89
:100A200000100240000C014080B582B000AF786039
:100A30007B681B68044A934201D100F09BFB00BF16
:100A40000837BD4680BD00BF002C014080B400AF18
:100A500072B600BF00BFFDE780B400AF00BFFDE786
:100A600080B400AF00BFFDE780B400AF00BFFDE77A
:100A700080B400AF00BFFDE780B400AF00BFFDE76A
:100A800080B400AF00BFBD4680BC704780B500AFEA
:100A9000024800F0ADF900BF80BD00BF2042002039
:100AA00080B485B000AF154B9B69144A43F0010335
:100AB0009361124B9B6903F00103BB60BB680F4B52
:100AC000DB690E4A43F08053D3610C4BDB6903F0C2
:100AD00080537B607B680A4B5B68FB60FB6823F09C
:100AE000E063FB60FB6843F00073FB60044AFB6853
:100AF000536000BF1437BD4680BC704700100240F1
:100B00000000014080B588B000AF786007F11003A5
:100B100000221A605A609A60DA607B681B681C4A7F
:100B2000934231D11B4B9B691A4A43F48043936132
:100B3000184B9B6903F48043FB60FB68154B9B6972
:100B4000144A43F004039361124B9B6903F00403BE
:100B5000BB60BB684FF400733B6102237B610323DE
:100B6000FB6107F1100319460B4800F05FFF4FF4DB
:100B700080633B6100237B610023BB6107F11003AD
:100B80001946054800F052FF00BF2037BD4680BD22
:100B900000380140001002400008014080B58CB0D0
:100BA00000AF78600023BB6200237B62002387F8DC
:100BB0002F302E4B9B692D4A43F4006393612B4BDE
:100BC0009B6903F40063BB60BB6807F10C0207F18B
:100BD00010031146184600F0DBFE00F0C5FEB862B7
:100BE000BB6A234AA2FB03239B0C013B7B62214B84
:100BF000214A1A601F4B40F2E732DA601D4A7B6AD5
:100C000053601C4B00221A611A4B00229A60194B48
:100C100000229A61174800F033F8034687F82F3016
:100C200097F82F30002B1BD1124800F081F80346B3
:100C300087F82F3097F82F30002B11D1192001F0B1
:100C40008CF97B680F2B08D800227968192001F0F5
:100C500068F90A4A7B68136002E0012387F82F30A5
:100C600097F82F3018463037BD4680BD001002403F
:100C700083DE1B4320420020002C01401000002096
:100C800080B582B000AF78607B68002B01D1012372
:100C900041E07B6893F83D30DBB2002B06D17B68E6
:100CA000002283F83C20786800F039F87B68022243
:100CB00083F83D207B681A687B6804331946104628
:100CC00000F0AAF97B68012283F846207B680122A4
:100CD00083F83E207B68012283F83F207B68012255
:100CE00083F840207B68012283F841207B68012241
:100CF00083F842207B68012283F843207B6801222D
:100D000083F844207B68012283F845207B68012218
:100D100083F83D20002318460837BD4680BD80B4C7
:100D200083B000AF786000BF0C37BD4680BC704711
:100D300080B485B000AF78607B6893F83D30DBB25B
:100D4000012B01D0012344E07B68022283F83D207F
:100D50007B681B68DA687B681B6842F00102DA6016
:100D60007B681B681D4A934218D07B681B681C4A2D
:100D7000934213D07B681B68B3F1804F0ED07B6821
:100D80001B68184A934209D07B681B68164A934235
:100D900004D07B681B68154A934211D17B681B689D
:100DA0009B6803F00703FB60FB68062B10D07B6891
:100DB0001B681A687B681B6842F001021A6007E032
:100DC0007B681B681A687B681B6842F001021A6026
:100DD000002318461437BD4680BC7047002C0140E4
:100DE000003401400004004000080040000C0040B6
:100DF00080B584B000AF78607B681B68DB68FB60FF
:100E00007B681B681B69BB60BB6803F00203002B97
:100E100020D0FB6803F00203002B1BD07B681B680B
:100E20006FF002021A617B6801221A777B681B68E7
:100E30009B6903F00303002B03D0786800F0D1F81E
:100E400005E0786800F0C4F8786800F0D3F87B68B3
:100E500000221A77BB6803F00403002B20D0FB6844
:100E600003F00403002B1BD07B681B686FF00402A7
:100E70001A617B6802221A777B681B689B6903F4FE
:100E80004073002B03D0786800F0ABF805E0786879
:100E900000F09EF8786800F0ADF87B6800221A77C1
:100EA000BB6803F00803002B20D0FB6803F00803A5
:100EB000002B1BD07B681B686FF008021A617B68EF
:100EC00004221A777B681B68DB6903F00303002B9D
:100ED00003D0786800F085F805E0786800F078F8CD
:100EE000786800F087F87B6800221A77BB6803F007
:100EF0001003002B20D0FB6803F01003002B1BD045
:100F00007B681B686FF010021A617B6808221A77F1
:100F10007B681B68DB6903F44073002B03D078689F
:100F200000F05FF805E0786800F052F8786800F0AB
:100F300061F87B6800221A77BB6803F00103002B7D
:100F40000CD0FB6803F00103002B07D07B681B6803
:100F50006FF001021A617868FFF766FDBB6803F065
:100F60008003002B0CD0FB6803F08003002B07D01C
:100F70007B681B686FF080021A61786800F0DBF80C
:100F8000BB6803F04003002B0CD0FB6803F0400368
:100F9000002B07D07B681B686FF040021A617868ED
:100FA00000F031F8BB6803F02003002B0CD0FB6885
:100FB00003F02003002B07D07B681B686FF0200232
:100FC0001A61786800F0AEF800BF1037BD4680BDEA
:100FD00080B483B000AF786000BF0C37BD4680BCE2
:100FE000704780B483B000AF786000BF0C37BD4657
:100FF00080BC704780B483B000AF786000BF0C370E
:10100000BD4680BC704780B483B000AF786000BF3D
:101010000C37BD4680BC704780B485B000AF7860A7
:1010200039607B681B68FB607B68394A934213D048
:101030007B68384A93420FD07B68B3F1804F0BD066
:101040007B68354A934207D07B68344A934203D089
:101050007B68334A934208D1FB6823F07003FB603E
:101060003B685B68FA681343FB607B68284A9342DD
:1010700013D07B68274A93420FD07B68B3F1804F2F
:101080000BD07B68244A934207D07B68234A934263
:1010900003D07B68224A934208D1FB6823F4407353
:1010A000FB603B68DB68FA681343FB60FB6823F076
:1010B00080023B685B691343FB607B68FA681A60D7
:1010C0003B689A687B68DA623B681A687B689A6258
:1010D0007B680F4A934203D07B680E4A934203D148
:1010E0003B681A697B681A637B6801225A617B68D6
:1010F0001B6903F00103002B05D07B681B6923F0FB
:1011000001027B681A6100BF1437BD4680BC70477E
:10111000002C014000340140000400400008004061
:10112000000C004080B483B000AF786000BF0C3783
:10113000BD4680BC704780B483B000AF786000BF0C
:101140000C37BD4680BC704780B500AF084B1B68AC
:10115000074A43F010031360032000F0D7FE0F206E
:10116000FFF71CFDFFF79CFC0023184680BD00BF65
:101170000020024080B400AF054B1B781A46054B97
:101180001B681344034A136000BFBD4680BC704710
:10119000140000206842002080B400AF024B1B689E
:1011A0001846BD4680BC70476842002080B586B0B6
:1011B00000AF78607B68002B01D1012372E27B686D
:1011C0001B6803F00103002B00F08780924B5B68E3
:1011D00003F00C03042B0CD08F4B5B6803F00C0363
:1011E000082B12D18C4B5B6803F48033B3F5803F3E
:1011F0000BD1894B1B6803F40033002B6CD07B6848
:101200005B68002B68D101234CE27B685B68B3F517
:10121000803F06D1804B1B687F4A43F480331360C4
:101220002EE07B685B68002B0CD17B4B1B687A4AF5
:1012300023F480331360784B1B68774A23F48023B0
:1012400013601DE07B685B68B3F5A02F0CD1724B77
:101250001B68714A43F4802313606F4B1B686E4A0E
:1012600043F4803313600BE06B4B1B686A4A23F432
:1012700080331360684B1B68674A23F48023136034
:101280007B685B68002B13D0FFF786FF386108E0AE
:10129000FFF782FF02463B69D31A642B01D903236F
:1012A00000E25D4B1B6803F40033002BF0D014E028
:1012B000FFF772FF386108E0FFF76EFF02463B69F7
:1012C000D31A642B01D90323ECE1534B1B6803F4BD
:1012D0000033002BF0D100E000BF7B681B6803F0F7
:1012E0000203002B63D04C4B5B6803F00C03002B14
:1012F0000BD0494B5B6803F00C03082B1CD1464B09
:101300005B6803F48033002B16D1434B1B6803F05A
:101310000203002B05D07B681B69012B01D0012340
:10132000C0E13D4B1B6823F0F8027B685B69DB0082
:10133000394913430B603AE07B681B69002B20D0CE
:10134000364B01221A60FFF727FF386108E0FFF7EC
:1013500023FF02463B69D31A022B01D90323A1E1E3
:101360002D4B1B6803F00203002BF0D02A4B1B68A7
:1013700023F0F8027B685B69DB00274913430B60AD
:1013800015E0264B00221A60FFF706FF386108E0DF
:10139000FFF702FF02463B69D31A022B01D9032350
:1013A00080E11D4B1B6803F00203002BF0D17B682A
:1013B0001B6803F00803002B3AD07B689B69002B65
:1013C00019D0174B01221A60FFF7E6FE386108E0DA
:1013D000FFF7E2FE02463B69D31A022B01D9032331
:1013E00060E10D4B5B6A03F00203002BF0D001209B
:1013F00000F0FEFA1CE00A4B00221A60FFF7CCFE58
:1014000038610FE0FFF7C8FE02463B69D31A022B92
:1014100008D9032346E100BF001002400000424209
:1014200080044242924B5B6A03F00203002BE9D135
:101430007B681B6803F00403002B00F0A6800023E8
:10144000FB758B4BDB6903F08053002B0DD1884B70
:10145000DB69874A43F08053D361854BDB6903F036
:101460008053BB60BB680123FB75824B1B6803F490
:101470008073002B18D17F4B1B687E4A43F4807326
:101480001360FFF789FE386108E0FFF785FE02462A
:101490003B69D31A642B01D9032303E1754B1B6805
:1014A00003F48073002BF0D07B68DB68012B06D13E
:1014B0006F4B1B6A6E4A43F0010313622DE07B6899
:1014C000DB68002B0CD16A4B1B6A694A23F00103CD
:1014D0001362674B1B6A664A23F0040313621CE025
:1014E0007B68DB68052B0CD1614B1B6A604A43F0BB
:1014F000040313625E4B1B6A5D4A43F001031362EF
:101500000BE05B4B1B6A5A4A23F001031362584BF2
:101510001B6A574A23F0040313627B68DB68002BC5
:1015200015D0FFF739FE38610AE0FFF735FE0246B5
:101530003B69D31A41F28832934201D90323B1E0C7
:101540004B4B1B6A03F00203002BEED014E0FFF7B5
:1015500023FE38610AE0FFF71FFE02463B69D31AFB
:1015600041F28832934201D903239BE0404B1B6A2E
:1015700003F00203002BEED1FB7D012B05D13C4B88
:10158000DB693B4A23F08053D3617B68DB69002B26
:1015900000F08780364B5B6803F00C03082B61D0AA
:1015A0007B68DB69022B46D1334B00221A60FFF7C0
:1015B000F3FD386108E0FFF7EFFD02463B69D31AFF
:1015C000022B01D903236DE0294B1B6803F0007344
:1015D000002BF0D17B681B6AB3F5803F08D1244B08
:1015E0005B6823F400327B689B68214913434B609E
:1015F0001F4B5B6823F474127B68196A7B685B6A13
:101600000B431B4913434B601B4B01221A60FFF72E
:10161000C3FD386108E0FFF7BFFD02463B69D31AFE
:10162000022B01D903233DE0114B1B6803F000732B
:10163000002BF0D035E0104B00221A60FFF7ACFD14
:10164000386108E0FFF7A8FD02463B69D31A022B78
:1016500001D9032326E0064B1B6803F00073002B1F
:10166000F0D11EE07B68DB69012B07D1012319E073
:101670000010024000700040600042420B4B5B686B
:10168000FB60FB6803F480327B681B6A9A4206D1D8
:10169000FB6803F470127B685B6A9A4201D00123F5
:1016A00000E0002318461837BD4680BD00100240F8
:1016B00080B584B000AF786039607B68002B01D1C1
:1016C0000123D0E06A4B1B6803F007033A689A4293
:1016D00010D9674B1B6823F0070265493B68134329
:1016E0000B60634B1B6803F007033A689A4201D012
:1016F0000123B8E07B681B6803F00203002B20D0B5
:101700007B681B6803F00403002B05D0594B5B6812
:10171000584A43F4E06353607B681B6803F0080396
:10172000002B05D0534B5B68524A43F4605353601F
:10173000504B5B6823F0F0027B689B684D49134374
:101740004B607B681B6803F00103002B40D07B6873
:101750005B68012B07D1474B1B6803F40033002B58
:1017600015D101237FE07B685B68022B07D1414BD9
:101770001B6803F00073002B09D1012373E03D4B7C
:101780001B6803F00203002B01D101236BE0394BEE
:101790005B6823F003027B685B68364913434B6048
:1017A000FFF7FAFCF8600AE0FFF7F6FC0246FB6878
:1017B000D31A41F28832934201D9032353E02D4BCF
:1017C0005B6803F00C027B685B689B009A42EBD17C
:1017D000274B1B6803F007033A689A4210D2244B48
:1017E0001B6823F0070222493B6813430B60204B20
:1017F0001B6803F007033A689A4201D0012332E0E4
:101800007B681B6803F00403002B08D0194B5B684E
:1018100023F4E0627B68DB68164913434B607B6806
:101820001B6803F00803002B09D0124B5B6823F4FC
:1018300060527B681B69DB000E4913434B6000F06C
:1018400021F802460B4B5B681B0903F00F030A49A2
:10185000CB5C22FA03F3094A1360094B1B68184654
:10186000FFF79CF9002318461037BD4680BD00BF26
:101870000020024000100240B4240008180000209C
:101880001000002080B487B000AF0023FB6000236D
:10189000BB6000237B6100237B6000233B611E4B08
:1018A0005B68FB60FB6803F00C03042B02D0082B81
:1018B00003D027E0194B3B6127E0FB689B0C03F04A
:1018C0000F03174AD35C7B60FB6803F48033002B63
:1018D00010D0114B5B685B0C03F00103114AD35C21
:1018E000BB607B680D4A03FB02F2BB68B2FBF3F3FB
:1018F0007B6104E07B680C4A02FB03F37B617B693C
:101900003B6102E0054B3B6100BF3B6918461C3759
:10191000BD4680BC704700BF0010024000127A0034
:10192000A0240008B024000800093D0080B400AFE6
:10193000024B1B681846BD4680BC7047180000204B
:1019400080B500AFFFF7F2FF0246054B5B681B0A4C
:1019500003F007030349CB5C22FA03F3184680BD6A
:1019600000100240C424000880B500AFFFF7DEFF7E
:101970000246054B5B68DB0A03F007030349CB5CB7
:1019800022FA03F3184680BD00100240C424000868
:1019900080B483B000AF786039607B680F221A6032
:1019A000114B5B6803F003027B685A600E4B5B6867
:1019B00003F0F0027B689A600B4B5B6803F4E06213
:1019C0007B68DA60084B5B68DB0803F4E0627B68E5
:1019D0001A61064B1B6803F007023B681A6000BFE0
:1019E0000C37BD4680BC704700100240002002400A
:1019F00080B485B000AF78600A4B1B680A4AA2FB2E
:101A000003235B0A7A6802FB03F3FB6000BFFB68F9
:101A10005A1EFA60002BF9D100BF00BF1437BD4633
:101A200080BC704718000020D34D621080B48BB08A
:101A300000AF7860396000237B6200233B6279E16C
:101A400001227B6A02FA03F3FB613B681B68FA69B7
:101A50001340BB61BA69FB699A4240F068813B68F8
:101A60005B68964A93425ED0944A934275D8944AF2
:101A7000934258D0924A93426FD8924A934252D09E
:101A8000904A934269D8904A93424CD08E4A9342EE
:101A900063D88E4A934246D08C4A93425DD8122B2B
:101AA0002AD8122B59D801A252F823F0271B00087C
:101AB000011B0008131B0008551B00085B1B0008D6
:101AC0005B1B00085B1B00085B1B00085B1B00081E
:101AD0005B1B00085B1B00085B1B00085B1B00080E
:101AE0005B1B00085B1B00085B1B00085B1B0008FE
:101AF000091B00081D1B0008754A934213D02CE0F7
:101B00003B68DB683B6229E03B68DB6804333B628F
:101B100024E03B68DB6808333B621FE03B68DB681E
:101B20000C333B621AE03B689B68002B02D1042314
:101B30003B6213E03B689B68012B05D108233B62A5
:101B40007B68FA691A6109E008233B627B68FA69DD
:101B50005A6103E000233B6200E000BFBB69FF2B3A
:101B600001D87B6801E07B6804337B61BB69FF2B94
:101B700002D87B6A9B0002E07B6A083B9B003B61CA
:101B80007B691A680F213B6901FA03F3DB431A40B2
:101B9000396A3B6901FA03F31A437B691A603B68AF
:101BA0005B6803F08053002B00F0C180494B9B69B8
:101BB000484A43F001039361464B9B6903F00103DC
:101BC000BB60BB68444A7B6A9B08023352F82330EF
:101BD000FB607B6A03F003039B000F2202FA03F30E
:101BE000DB43FA681340FB607B683C4A93421FD09A
:101BF0007B683B4A934219D07B683A4A934213D0A0
:101C00007B68394A93420DD07B68384A934207D0AB
:101C10007B68374A934201D105230AE0062308E096
:101C2000042306E0032304E0022302E0012300E092
:101C300000237A6A02F0030292009340FA68134389
:101C4000FB6025497B6A9B080233FA6841F8232030
:101C50003B685B6803F48013002B06D0254B9A6821
:101C60002449BB6913438B6006E0224B9A68BB6929
:101C7000DB43204913408B603B685B6803F400132F
:101C8000002B06D01B4BDA681A49BB691343CB60A3
:101C900006E0184BDA68BB69DB4316491340CB609A
:101CA0003B685B6803F40033002B25D0114B5A6866
:101CB0001049BB6913434B6025E000BF00003210A0
:101CC000000031100000221000002110000012104E
:101CD0000000111000100240000001400008014007
:101CE000000C0140001001400014014000180140A8
:101CF000001C014000040140154B5A68BB69DB43DE
:101D0000134913404B603B685B6803F48033002B3E
:101D100006D00F4B1A680E49BB6913430B6006E0EF
:101D20000B4B1A68BB69DB43094913400B607B6AA4
:101D300001337B623B681A687B6A22FA03F3002B4B
:101D40007FF47EAE00BF00BF2C37BD4680BC70471D
:101D50000004014080B483B000AF78600B467B8004
:101D600013467B707B78002B03D07A887B681A61DE
:101D700003E07B881A047B681A6100BF0C37BD46FC
:101D800080BC704780B485B000AF78600B467B8024
:101D90007B68DB68FB607A88FB6813401A04FB6889
:101DA000D9437B880B401A437B681A6100BF143704
:101DB000BD4680BC7047000080B485B000AF78603D
:101DC0007B6803F00703FB600C4BDB68BB60BA6801
:101DD0004FF6FF031340BB60FB681A02BB68134356
:101DE00043F0BF6343F40033BB60044ABB68D36075
:101DF00000BF1437BD4680BC704700BF00ED00E057
:101E000080B400AF044BDB681B0A03F007031846DD
:101E1000BD4680BC704700BF00ED00E080B483B0D9
:101E200000AF0346FB7197F90730002B0BDBFB7902
:101E300003F01F02064997F907305B09012000FAF9
:101E400002F241F8232000BF0C37BD4680BC70472A
:101E500000E100E080B483B000AF03463960FB715D
:101E600097F90730002B0ADB3B68DAB20C4997F987
:101E700007301201D2B20B4483F800230AE03B681A
:101E8000DAB20849FB7903F00F03043B1201D2B226
:101E90000B441A7600BF0C37BD4680BC704700BFAC
:101EA00000E100E000ED00E080B489B000AFF86030
:101EB000B9607A60FB6803F00703FB61FB69C3F15B
:101EC0000703042B28BF0423BB61FB690433062BE3
:101ED00002D9FB69033B00E000237B614FF0FF3236
:101EE000BB6902FA03F3DA43BB681A407B699A4084
:101EF0004FF0FF317B6901FA03F3D9437B680B4054
:101F0000134318462437BD4680BC704780B582B065
:101F100000AF78607868FFF74FFF00BF0837BD4615
:101F200080BD80B586B000AF0346B9607A60FB73B0
:101F300000237B61FFF764FF78617A68B96878698C
:101F4000FFF7B2FF024697F90F3011461846FFF728
:101F500081FF00BF1837BD4680BD80B582B000AF9D
:101F60000346FB7197F907301846FFF757FF00BF8C
:101F70000837BD4680BD80B400AF00BFBD4680BC01
:101F8000704780B582B000AF78607B68002B01D1CC
:101F9000012342E07B6893F84130DBB2002B06D18D
:101FA0007B68002283F840207868FEF7ABFD7B68F1
:101FB000242283F841207B681B68DA687B681B68F1
:101FC00022F40052DA60786800F072F97B681B68CE
:101FD0001A697B681B6822F490421A617B681B684F
:101FE0005A697B681B6822F02A025A617B681B6869
:101FF000DA687B681B6842F40052DA607B68002272
:102000005A647B68202283F841207B68202283F871
:1020100042207B6800225A63002318460837BD46D9
:1020200080BD80B58AB002AFF860B9603B601346EE
:10203000FB8000237B61FB6893F84130DBB2202BEF
:1020400075D1BB68002B02D0FB88002B01D1012386
:102050006EE0FB6800225A64FB68212283F841206D
:10206000FFF79AF87861FB68FA889A84FB68FA8827
:10207000DA84FB689B68B3F5805F08D1FB681B6955
:10208000002B04D10023FB61BB68BB6103E0BB688C
:10209000FB610023BB612EE03B6800937B6900225B
:1020A0008021F86800F048F80346002B05D0FB6853
:1020B000202283F8412003233AE0FB69002B0BD157
:1020C000BB691B881A46FB681B68C2F308025A608A
:1020D000BB690233BB6107E0FB691A78FB681B68C8
:1020E0005A60FB690133FB61FB68DB8C9BB2013BEF
:1020F0009AB2FB68DA84FB68DB8C9BB2002BCBD1F5
:102100003B6800937B6900224021F86800F014F8D6
:102110000346002B05D0FB68202283F841200323CF
:1021200006E0FB68202283F84120002300E0022320
:1021300018462037BD4680BD80B586B000AFF86038
:10214000B9603B601346FB713BE03B6AB3F1FF3F74
:1021500037D0FFF721F802463B68D31A3A6A9A4211
:1021600002D33B6A002B01D103233AE0FB681B68D2
:10217000DB6803F00403002B23D0BB68802B20D046
:10218000BB68402B1DD0FB681B681B6803F008036D
:10219000082B16D100237B61FB681B681B687B61E1
:1021A000FB681B685B687B617B69F86800F01DF861
:1021B000FB6808225A64FB68002283F84020012350
:1021C0000FE0FB681B681A68BB681340BA689A4244
:1021D0000CBF01230023DBB21A46FB799A42B4D02C
:1021E000002318461837BD4680BD80B495B000AFB7
:1021F00078607B681B680C337B637B6B53E8003F24
:102200003B633B6B23F49073FB647B681B680C336C
:10221000FA6C3A64FB63F96B3A6C41E80023BB63E8
:10222000BB6B002BE5D17B681B6814333B623B6AB8
:1022300053E8003FFB61FB6923F00103BB647B684B
:102240001B681433BA6CFA62BB62B96AFA6A41E875
:1022500000237B627B6A002BE5D17B681B6B012B23
:1022600019D17B681B680C33FB60FB6853E8003FA7
:10227000BB60BB6823F010037B647B681B680C3376
:102280007A6CBA617B617969BA6941E800233B6184
:102290003B69002BE5D17B68202283F842207B68D4
:1022A00000221A6300BF5437BD4680BC704700004F
:1022B00080B584B000AF78607B681B681B6923F42D
:1022C00040517B68DA687B681B680A431A617B6847
:1022D0009A687B681B691A437B685B691343BB6020
:1022E0007B681B68DB6823F4B05323F00C037A6827
:1022F0001268B9680B43D3607B681B685B6923F481
:1023000040717B689A697B681B680A435A617B68E5
:102310001B682C4A934203D1FFF726FBF86002E0CA
:10232000FFF70EFBF860FA6813469B0013449A000F
:102330001A447B685B689B00B2FBF3F3224AA2FB62
:1023400003235B091901FA6813469B0013449A00A2
:102350001A447B685B689B00B2FBF3F21A4BA3FB49
:1023600002035B09642000FB03F3D31A1B01323321
:10237000154AA2FB03235B0903F0F0031944FA6832
:1023800013469B0013449A001A447B685B689B00C9
:10239000B2FBF3F20C4BA3FB02035B09642000FBCE
:1023A00003F3D31A1B013233074AA2FB03235B0951
:1023B00003F00F027B681B680A449A6000BF103765
:1023C000BD4680BD003801401F85EB51FFF7D3FDAE
:1023D0000B480C490C4A002302E0D458C450043383
:1023E000C4188C42F9D3094A094C002301E0136058
:1023F0000432A242FBD300F017F8FEF73DFA704713
:10240000000000201C000020D42400081C00002034
:102410006C420020FEE703460244934200D170471D
:1024200003F8011BF9E7000070B500260C4D0D4BB9
:102430005B1B9C10A64209D1002600F019F80A4D3A
:102440000A4B5B1B9C10A64205D170BD55F8043B9E
:1024500098470136EEE755F8043B98470136F2E716
:10246000CC240008CC240008CC240008D024000888
:10247000F8B500BFF8BC08BC9E467047F8B500BF71
:08248000F8BC08BC9E46704741
:102488005468652073797374656D20697320736C63
:10249800656570696E670000020304050607080990
:1024A8000A0B0C0D0E0F10100102000000000000B6
:1024B80000000000010203040607080900000000EC
:0424C8000102030406
:0424CC0015020008ED
:0424D000F10100080E
:1024D40000000000000000000000000000400000B8
:0C24E400100000000100000000127A004F
:04000005080023CDFF
:00000001FF
